:100000000C9434000C9446000C9446000C9446006A
:100010000C9446000C9446000C9446000C94460048
:100020000C9446000C9446000C9446000C94460038
:100030000C9446000C9446000C9446000C94460028
:100040000C9448000C9446000C9446000C94460016
:100050000C9446000C9446000C9446000C94460008
:100060000C9446000C94460011241FBECFEFD8E03C
:10007000DEBFCDBF21E0A0E0B1E001C01D92A03302
:10008000B207E1F70E9492000C9410010C9400005A
:100090001F920F920FB60F9211242F933F938F93BD
:1000A0009F93AF93BF9380912C0190912D01A091CC
:1000B0002E01B0912F0130912B0123E0230F2D371A
:1000C00058F50196A11DB11D20932B0180932C01A1
:1000D00090932D01A0932E01B0932F0180912701C1
:1000E00090912801A0912901B0912A010196A11DAA
:1000F000B11D8093270190932801A0932901B0930B
:100100002A01BF91AF919F918F913F912F910F90B5
:100110000FBE0F901F90189526E8230F0296A11D81
:10012000B11DD2CF789484B5826084BD84B58160DE
:1001300084BD85B5826085BD85B5816085BD8091B2
:100140006E00816080936E0010928100809181002A
:100150008260809381008091810081608093810022
:10016000809180008160809380008091B1008460E4
:100170008093B1008091B00081608093B000809145
:100180007A00846080937A0080917A008260809304
:100190007A0080917A00816080937A0080917A0061
:1001A000806880937A001092C10000E211E081E142
:1001B000E82E81E0F82E90E0C92E90E0D92E20E2C2
:1001C000622E712C812C912C54018394E0E0F1E09B
:1001D000DF0181E38D9380E30A171B07D9F71092A3
:1001E0002001A0E2B1E081919E919F01215031094F
:1001F000E90198838C93EE16FF06A9F7C114D10488
:1002000029F370922601609225018092210190923B
:100210002201A0922301B09224010E940000D6CFB7
:04022000F894FFCF80
:00000001FF
